{
  "contractName": "CrowdFunding",
  "abi": [
    {
      "constant": false,
      "inputs": [],
      "name": "checkGoalReached",
      "outputs": [],
      "payable": false,
      "stateMutability": "nonpayable",
      "type": "function"
    },
    {
      "constant": true,
      "inputs": [],
      "name": "ended",
      "outputs": [
        {
          "name": "",
          "type": "bool"
        }
      ],
      "payable": false,
      "stateMutability": "view",
      "type": "function"
    },
    {
      "constant": true,
      "inputs": [],
      "name": "numInvestors",
      "outputs": [
        {
          "name": "",
          "type": "uint256"
        }
      ],
      "payable": false,
      "stateMutability": "view",
      "type": "function"
    },
    {
      "constant": true,
      "inputs": [],
      "name": "totalAmount",
      "outputs": [
        {
          "name": "",
          "type": "uint256"
        }
      ],
      "payable": false,
      "stateMutability": "view",
      "type": "function"
    },
    {
      "constant": true,
      "inputs": [],
      "name": "status",
      "outputs": [
        {
          "name": "",
          "type": "string"
        }
      ],
      "payable": false,
      "stateMutability": "view",
      "type": "function"
    },
    {
      "constant": true,
      "inputs": [],
      "name": "goalAmount",
      "outputs": [
        {
          "name": "",
          "type": "uint256"
        }
      ],
      "payable": false,
      "stateMutability": "view",
      "type": "function"
    },
    {
      "constant": true,
      "inputs": [],
      "name": "deadline",
      "outputs": [
        {
          "name": "",
          "type": "uint256"
        }
      ],
      "payable": false,
      "stateMutability": "view",
      "type": "function"
    },
    {
      "constant": true,
      "inputs": [
        {
          "name": "",
          "type": "uint256"
        }
      ],
      "name": "investors",
      "outputs": [
        {
          "name": "addr",
          "type": "address"
        },
        {
          "name": "amount",
          "type": "uint256"
        }
      ],
      "payable": false,
      "stateMutability": "view",
      "type": "function"
    },
    {
      "constant": false,
      "inputs": [],
      "name": "kill",
      "outputs": [],
      "payable": false,
      "stateMutability": "nonpayable",
      "type": "function"
    },
    {
      "constant": true,
      "inputs": [],
      "name": "owner",
      "outputs": [
        {
          "name": "",
          "type": "address"
        }
      ],
      "payable": false,
      "stateMutability": "view",
      "type": "function"
    },
    {
      "constant": false,
      "inputs": [],
      "name": "fund",
      "outputs": [],
      "payable": true,
      "stateMutability": "payable",
      "type": "function"
    },
    {
      "inputs": [
        {
          "name": "_duration",
          "type": "uint256"
        },
        {
          "name": "_goalAmount",
          "type": "uint256"
        }
      ],
      "payable": false,
      "stateMutability": "nonpayable",
      "type": "constructor"
    }
  ],
  "bytecode": "0x6060604052341561000f57600080fd5b604051604080610a8983398101604052808051906020019091908051906020019091905050336000806101000a81548173ffffffffffffffffffffffffffffffffffffffff021916908373ffffffffffffffffffffffffffffffffffffffff160217905550814201600281905550806005819055506040805190810160405280601b81526020017fe382ade383a3e383b3e3839ae383bce383b3e5ae9fe696bde4b8ad0000000000815250600390805190602001906100cf929190610102565b506000600460006101000a81548160ff0219169083151502179055506000600181905550600060068190555050506101a7565b828054600181600116156101000203166002900490600052602060002090601f016020900481019282601f1061014357805160ff1916838001178555610171565b82800160010185558215610171579182015b82811115610170578251825591602001919060010190610155565b5b50905061017e9190610182565b5090565b6101a491905b808211156101a0576000816000905550600101610188565b5090565b90565b6108d3806101b66000396000f3006060604052600436106100af576000357c0100000000000000000000000000000000000000000000000000000000900463ffffffff16806301cb3b20146100b457806312fa6feb146100c9578063132ae5e9146100f65780631a39d8ef1461011f578063200d2ed2146101485780632636b945146101d657806329dcb0cf146101ff5780633feb5f2b1461022857806341c0e1b5146102925780638da5cb5b146102a7578063b60d4288146102fc575b600080fd5b34156100bf57600080fd5b6100c7610306565b005b34156100d457600080fd5b6100dc610595565b604051808215151515815260200191505060405180910390f35b341561010157600080fd5b6101096105a8565b6040518082815260200191505060405180910390f35b341561012a57600080fd5b6101326105ae565b6040518082815260200191505060405180910390f35b341561015357600080fd5b61015b6105b4565b6040518080602001828103825283818151815260200191508051906020019080838360005b8381101561019b578082015181840152602081019050610180565b50505050905090810190601f1680156101c85780820380516001836020036101000a031916815260200191505b509250505060405180910390f35b34156101e157600080fd5b6101e9610652565b6040518082815260200191505060405180910390f35b341561020a57600080fd5b610212610658565b6040518082815260200191505060405180910390f35b341561023357600080fd5b610249600480803590602001909190505061065e565b604051808373ffffffffffffffffffffffffffffffffffffffff1673ffffffffffffffffffffffffffffffffffffffff1681526020018281526020019250505060405180910390f35b341561029d57600080fd5b6102a56106a2565b005b34156102b257600080fd5b6102ba610737565b604051808273ffffffffffffffffffffffffffffffffffffffff1673ffffffffffffffffffffffffffffffffffffffff16815260200191505060405180910390f35b61030461075c565b005b60008060009054906101000a900473ffffffffffffffffffffffffffffffffffffffff1673ffffffffffffffffffffffffffffffffffffffff163373ffffffffffffffffffffffffffffffffffffffff1614151561036357600080fd5b600460009054906101000a900460ff1615151561037f57600080fd5b600254421015151561039057600080fd5b600554600654101515610481576040805190810160405280601881526020017fe382ade383a3e383b3e3839ae383bce383b3e68890e58a9f0000000000000000815250600390805190602001906103e8929190610802565b506001600460006101000a81548160ff0219169083151502179055506000809054906101000a900473ffffffffffffffffffffffffffffffffffffffff1673ffffffffffffffffffffffffffffffffffffffff166108fc3073ffffffffffffffffffffffffffffffffffffffff16319081150290604051600060405180830381858888f19350505050151561047c57600080fd5b610592565b600090506040805190810160405280601881526020017fe382ade383a3e383b3e3839ae383bce383b3e5a4b1e695970000000000000000815250600390805190602001906104d0929190610802565b506001600460006101000a81548160ff0219169083151502179055505b60015481111515610591576007600082815260200190815260200160002060000160009054906101000a900473ffffffffffffffffffffffffffffffffffffffff1673ffffffffffffffffffffffffffffffffffffffff166108fc60076000848152602001908152602001600020600101549081150290604051600060405180830381858888f19350505050151561058457600080fd5b80806001019150506104ed565b5b50565b600460009054906101000a900460ff1681565b60015481565b60065481565b60038054600181600116156101000203166002900480601f01602080910402602001604051908101604052809291908181526020018280546001816001161561010002031660029004801561064a5780601f1061061f5761010080835404028352916020019161064a565b820191906000526020600020905b81548152906001019060200180831161062d57829003601f168201915b505050505081565b60055481565b60025481565b60076020528060005260406000206000915090508060000160009054906101000a900473ffffffffffffffffffffffffffffffffffffffff16908060010154905082565b6000809054906101000a900473ffffffffffffffffffffffffffffffffffffffff1673ffffffffffffffffffffffffffffffffffffffff163373ffffffffffffffffffffffffffffffffffffffff161415156106fd57600080fd5b6000809054906101000a900473ffffffffffffffffffffffffffffffffffffffff1673ffffffffffffffffffffffffffffffffffffffff16ff5b6000809054906101000a900473ffffffffffffffffffffffffffffffffffffffff1681565b6000600460009054906101000a900460ff1615151561077a57600080fd5b60076000600160008154809291906001019190505581526020019081526020016000209050338160000160006101000a81548173ffffffffffffffffffffffffffffffffffffffff021916908373ffffffffffffffffffffffffffffffffffffffff160217905550348160010181905550806001015460066000828254019250508190555050565b828054600181600116156101000203166002900490600052602060002090601f016020900481019282601f1061084357805160ff1916838001178555610871565b82800160010185558215610871579182015b82811115610870578251825591602001919060010190610855565b5b50905061087e9190610882565b5090565b6108a491905b808211156108a0576000816000905550600101610888565b5090565b905600a165627a7a723058201d2876a2917c4ffff177d0d4ae87051968aec9ab0a0d6dd09d30adb6d6e6bac30029",
  "source": "pragma solidity ^0.4.11;\n\ncontract CrowdFunding {\n  struct Investor {\n    address addr;\n    uint amount;\n  }\n\n  address public owner;\n  uint public numInvestors;\n  uint public deadline;\n  string public status;\n  bool public ended;\n  uint public goalAmount;\n  uint public totalAmount;\n  mapping (uint => Investor) public investors;\n\n  modifier onlyOwner() {\n    require(msg.sender == owner);\n    _;\n  }\n\n  /// constructor\n  function CrowdFunding(uint _duration, uint _goalAmount) {\n    owner = msg.sender;\n\n    deadline = now + _duration;\n\n    goalAmount = _goalAmount;\n    status = 'キャンペーン実施中';\n    ended = false;\n\n    numInvestors = 0;\n    totalAmount = 0;\n  }\n\n  function fund() payable {\n    require(!ended);\n\n    Investor investor = investors[numInvestors++];\n    investor.addr = msg.sender;\n    investor.amount = msg.value;\n    totalAmount += investor.amount;\n  }\n\n  function checkGoalReached() public onlyOwner {\n    require(!ended);\n\n    require(now >= deadline);\n\n    if(totalAmount >= goalAmount) {\n      status = 'キャンペーン成功';\n      ended = true;\n\n      if(!owner.send(this.balance)) {\n        throw;\n      }\n    } else {\n      uint i = 0;\n      status = 'キャンペーン失敗';\n      ended = true;\n\n      while(i <= numInvestors) {\n        if(!investors[i].addr.send(investors[i].amount)) {\n          throw;\n        }\n        i++;\n      }\n    }\n  }\n\n  function kill() public onlyOwner {\n    selfdestruct(owner);\n  }\n}\n",
  "sourcePath": "/Users/sakochikodai/Desktop/sample-contract/contracts/CrowdFunding.sol",
  "compiler": {
    "name": "solc",
    "version": "0.4.18+commit.9cf6e910.Emscripten.clang"
  },
  "schemaVersion": "1.0.1",
  "updatedAt": "2017-12-10T14:09:01.290Z"
}